:100000000C945C000C9479000C9479000C947900A9
:100010000C9479000C9479000C9479000C9479007C
:100020000C9479000C9479000C9479000C9479006C
:100030000C9479000C9479000C9479000C9479005C
:100040000C9409010C9479000C9479000C947900BB
:100050000C9479000C9479000C9479000C9479003C
:100060000C9479000C947900000000080002010053
:100070000003040700000000000000000000000072
:10008000250028002B0000000000240027002A0083
:10009000040404040404040402020202020203032E
:1000A0000303030301020408102040800102040836
:1000B000102001020408102011241FBECFEFD8E049
:1000C000DEBFCDBF11E0A0E0B1E0E2EFF3E002C09F
:1000D00005900D92A831B107D9F721E0A8E1B1E070
:1000E00001C01D92A132B207E1F70E9453010C94A6
:1000F000F7010C9400003FB7F89480911D01909196
:100100001E01A0911F01B091200126B5A89B05C03A
:100110002F3F19F00196A11DB11D3FBFBA2FA92F86
:10012000982F8827BC01CD01620F711D811D911D83
:1001300042E0660F771F881F991F4A95D1F70895EF
:10014000CF93DF9380509F4FFC014081AAE0B1E044
:1001500030E020E050E08D919D919927FC01E85915
:10016000FF4F7491FC01EC55FF4F6491FC01E05787
:10017000FF4FE491EE2301F1772339F0733079F1E9
:1001800020F5713091F17230A1F1F0E0EE0FFF1F18
:10019000E458FF4FC591D4918FB7F894FA01022E1D
:1001A00002C0F595E7950A94E2F7E0FD2FC0E881DB
:1001B00060956E2368838FBF2F5F3F4F27303105D7
:1001C00009F0C9CFDF91CF9108957730A9F0783049
:1001D000C9F07430D1F6809180008F7D03C080918A
:1001E00080008F7780938000D0CF84B58F7784BDD7
:1001F000CCCF84B58F7DFBCF8091B0008F7780937B
:10020000B000C3CF8091B0008F7DF9CFE8816E2B15
:10021000D1CF1F920F920FB60F9211242F933F93BD
:100220008F939F93AF93BF938091190190911A017F
:10023000A0911B01B0911C013091180123E0230F04
:100240002D3758F50196A11DB11D209318018093FB
:10025000190190931A01A0931B01B0931C01809186
:100260001D0190911E01A0911F01B09120010196E6
:10027000A11DB11D80931D0190931E01A0931F012C
:10028000B0932001BF91AF919F918F913F912F919A
:100290000F900FBE0F901F90189526E8230F02961F
:1002A000A11DB11DD2CF789484B5826084BD84B580
:1002B000816084BD85B5826085BD85B5816085BD61
:1002C00080916E00816080936E0010928100809119
:1002D00081008260809381008091810081608093A1
:1002E0008100809180008160809380008091B100C6
:1002F00084608093B1008091B00081608093B000F1
:1003000080917A00846080937A0080917A00826084
:1003100080937A0080917A00816080937A00809146
:100320007A00806880937A001092C100AAE0B1E060
:1003300028E131E08D919D919927FC01EC55FF4F0B
:10034000449180579F4FFC018491882399F090E05D
:10035000880F991FFC01EA57FF4FC591D491FC010A
:10036000E458FF4F859194918FB7F894E881E42B7E
:10037000E8838FBF2A173B07E9F690E080E00E94F0
:10038000A00000E010E0D0E0C0E0CE010E94A0009C
:100390000E947B006B017C0188EE882E83E0982E02
:1003A000A12CB12C0E947B006C197D098E099F093C
:1003B000683E734081059105A8F3F1E08F1A91081A
:1003C000A108B10828EEC20E23E0D21EE11CF11CE8
:1003D00081149104A104B10429F72196CA30D105F2
:1003E000A1F60115110579F20E940000CCCFF89416
:0203F000FFCF3D
:1003F200407924301912027800100300040005002D
:080402000600070009000A00D2
:00000001FF
