:020000040000FA
:020000002F28A7
:040002000034003492
:0800080005282508031D12283C
:1000100021084C20A2002208051485148600051032
:10002000A5091B2823084C20A400240805148514C6
:1000300086008510A509A00B2B28A10A0A302102F1
:10004000031D2928A101A30A0A302302031D292820
:10005000A3016430A0000B11D83081000900831681
:100060000317880189018316031385018601831212
:10007000031385018601A101A301A50183160313C2
:100080000730810083120313D9308100A0308B0028
:100090006430A00000004A2882073F3406345B34F5
:0E00A0004F3466346D347D3407347F3467345A
:02400E00F42F8D
:00000001FF
